{
  "contractName": "Documents",
  "abi": [
    {
      "constant": true,
      "inputs": [],
      "name": "accountsAddress",
      "outputs": [
        {
          "name": "",
          "type": "address"
        }
      ],
      "payable": false,
      "stateMutability": "view",
      "type": "function"
    },
    {
      "inputs": [
        {
          "name": "acctAddr",
          "type": "address"
        }
      ],
      "payable": false,
      "stateMutability": "nonpayable",
      "type": "constructor"
    },
    {
      "anonymous": false,
      "inputs": [
        {
          "indexed": false,
          "name": "user",
          "type": "address"
        }
      ],
      "name": "DocumentAdded",
      "type": "event"
    },
    {
      "anonymous": false,
      "inputs": [
        {
          "indexed": false,
          "name": "user",
          "type": "address"
        }
      ],
      "name": "DocumentVerified",
      "type": "event"
    },
    {
      "anonymous": false,
      "inputs": [
        {
          "indexed": false,
          "name": "test",
          "type": "uint256"
        }
      ],
      "name": "test",
      "type": "event"
    },
    {
      "constant": false,
      "inputs": [
        {
          "name": "_verifier",
          "type": "address"
        },
        {
          "name": "_name",
          "type": "string"
        },
        {
          "name": "_description",
          "type": "string"
        },
        {
          "name": "_docAddress",
          "type": "string"
        }
      ],
      "name": "addDocument",
      "outputs": [],
      "payable": true,
      "stateMutability": "payable",
      "type": "function"
    },
    {
      "constant": true,
      "inputs": [
        {
          "name": "docAddress",
          "type": "string"
        }
      ],
      "name": "getDocument",
      "outputs": [
        {
          "name": "name",
          "type": "string"
        },
        {
          "name": "requester",
          "type": "address"
        },
        {
          "name": "verifier",
          "type": "address"
        },
        {
          "name": "description",
          "type": "string"
        },
        {
          "name": "status",
          "type": "uint8"
        }
      ],
      "payable": false,
      "stateMutability": "view",
      "type": "function"
    },
    {
      "constant": true,
      "inputs": [
        {
          "name": "_verifier",
          "type": "address"
        },
        {
          "name": "lIndex",
          "type": "uint256"
        }
      ],
      "name": "getVerifierDocuments",
      "outputs": [
        {
          "name": "name",
          "type": "string"
        },
        {
          "name": "requester",
          "type": "address"
        },
        {
          "name": "description",
          "type": "string"
        },
        {
          "name": "docAddress",
          "type": "string"
        },
        {
          "name": "status",
          "type": "uint8"
        },
        {
          "name": "index",
          "type": "uint256"
        }
      ],
      "payable": false,
      "stateMutability": "view",
      "type": "function"
    },
    {
      "constant": true,
      "inputs": [
        {
          "name": "_requester",
          "type": "address"
        },
        {
          "name": "lIndex",
          "type": "uint256"
        }
      ],
      "name": "getRequesterDocuments",
      "outputs": [
        {
          "name": "name",
          "type": "string"
        },
        {
          "name": "verifier",
          "type": "address"
        },
        {
          "name": "description",
          "type": "string"
        },
        {
          "name": "docAddress",
          "type": "string"
        },
        {
          "name": "status",
          "type": "uint8"
        },
        {
          "name": "index",
          "type": "uint256"
        }
      ],
      "payable": false,
      "stateMutability": "view",
      "type": "function"
    },
    {
      "constant": false,
      "inputs": [
        {
          "name": "docAddress",
          "type": "string"
        },
        {
          "name": "status",
          "type": "uint8"
        }
      ],
      "name": "verifyDocument",
      "outputs": [],
      "payable": true,
      "stateMutability": "payable",
      "type": "function"
    },
    {
      "constant": true,
      "inputs": [
        {
          "name": "account",
          "type": "address"
        }
      ],
      "name": "getCounts",
      "outputs": [
        {
          "name": "verified",
          "type": "uint256"
        },
        {
          "name": "rejected",
          "type": "uint256"
        },
        {
          "name": "total",
          "type": "uint256"
        }
      ],
      "payable": false,
      "stateMutability": "view",
      "type": "function"
    },
    {
      "constant": false,
      "inputs": [],
      "name": "kill",
      "outputs": [],
      "payable": false,
      "stateMutability": "nonpayable",
      "type": "function"
    }
  ],
  "bytecode": "0x608060405234801561001057600080fd5b506040516020806128f983398101806040528101908080519060200190929190505050336000806101000a81548173ffffffffffffffffffffffffffffffffffffffff021916908373ffffffffffffffffffffffffffffffffffffffff16021790555080600160006101000a81548173ffffffffffffffffffffffffffffffffffffffff021916908373ffffffffffffffffffffffffffffffffffffffff16021790555050612835806100c46000396000f30060806040526004361061008e576000357c0100000000000000000000000000000000000000000000000000000000900463ffffffff1680630225757e1461009357806341c0e1b51461019b57806355cd7947146101b25780635b467404146102095780637ccb6a641461026e578063942037fa146104375780639fef690414610624578063e4678dfb14610811575b600080fd5b610199600480360381019080803573ffffffffffffffffffffffffffffffffffffffff169060200190929190803590602001908201803590602001908080601f0160208091040260200160405190810160405280939291908181526020018383808284378201915050505050509192919290803590602001908201803590602001908080601f0160208091040260200160405190810160405280939291908181526020018383808284378201915050505050509192919290803590602001908201803590602001908080601f016020809104026020016040519081016040528093929190818152602001838380828437820191505050505050919291929050505061087a565b005b3480156101a757600080fd5b506101b0611044565b005b3480156101be57600080fd5b506101c76110d5565b604051808273ffffffffffffffffffffffffffffffffffffffff1673ffffffffffffffffffffffffffffffffffffffff16815260200191505060405180910390f35b34801561021557600080fd5b5061024a600480360381019080803573ffffffffffffffffffffffffffffffffffffffff1690602001909291905050506110fb565b60405180848152602001838152602001828152602001935050505060405180910390f35b34801561027a57600080fd5b506102d5600480360381019080803590602001908201803590602001908080601f01602080910402602001604051908101604052809392919081815260200183838082843782019150505050505091929192905050506111d6565b60405180806020018673ffffffffffffffffffffffffffffffffffffffff1673ffffffffffffffffffffffffffffffffffffffff1681526020018573ffffffffffffffffffffffffffffffffffffffff1673ffffffffffffffffffffffffffffffffffffffff1681526020018060200184600281111561035157fe5b60ff168152602001838103835288818151815260200191508051906020019080838360005b83811015610391578082015181840152602081019050610376565b50505050905090810190601f1680156103be5780820380516001836020036101000a031916815260200191505b50838103825285818151815260200191508051906020019080838360005b838110156103f75780820151818401526020810190506103dc565b50505050905090810190601f1680156104245780820380516001836020036101000a031916815260200191505b5097505050505050505060405180910390f35b34801561044357600080fd5b50610482600480360381019080803573ffffffffffffffffffffffffffffffffffffffff16906020019092919080359060200190929190505050611602565b60405180806020018773ffffffffffffffffffffffffffffffffffffffff1673ffffffffffffffffffffffffffffffffffffffff16815260200180602001806020018660028111156104d057fe5b60ff16815260200185815260200184810384528a818151815260200191508051906020019080838360005b838110156105165780820151818401526020810190506104fb565b50505050905090810190601f1680156105435780820380516001836020036101000a031916815260200191505b50848103835288818151815260200191508051906020019080838360005b8381101561057c578082015181840152602081019050610561565b50505050905090810190601f1680156105a95780820380516001836020036101000a031916815260200191505b50848103825287818151815260200191508051906020019080838360005b838110156105e25780820151818401526020810190506105c7565b50505050905090810190601f16801561060f5780820380516001836020036101000a031916815260200191505b50995050505050505050505060405180910390f35b34801561063057600080fd5b5061066f600480360381019080803573ffffffffffffffffffffffffffffffffffffffff16906020019092919080359060200190929190505050611969565b60405180806020018773ffffffffffffffffffffffffffffffffffffffff1673ffffffffffffffffffffffffffffffffffffffff16815260200180602001806020018660028111156106bd57fe5b60ff16815260200185815260200184810384528a818151815260200191508051906020019080838360005b838110156107035780820151818401526020810190506106e8565b50505050905090810190601f1680156107305780820380516001836020036101000a031916815260200191505b50848103835288818151815260200191508051906020019080838360005b8381101561076957808201518184015260208101905061074e565b50505050905090810190601f1680156107965780820380516001836020036101000a031916815260200191505b50848103825287818151815260200191508051906020019080838360005b838110156107cf5780820151818401526020810190506107b4565b50505050905090810190601f1680156107fc5780820380516001836020036101000a031916815260200191505b50995050505050505050505060405180910390f35b610878600480360381019080803590602001908201803590602001908080601f0160208091040260200160405190810160405280939291908181526020018383808284378201915050505050509192919290803560ff169060200190929190505050611cd0565b005b8060008060009150600090505b600280549050811015610a635773__StringUtils___________________________6346bdca9a6002838154811015156108bd57fe5b9060005260206000209060060201600401856040518363ffffffff167c01000000000000000000000000000000000000000000000000000000000281526004018080602001806020018381038352858181546001816001161561010002031660029004815260200191508054600181600116156101000203166002900480156109875780601f1061095c57610100808354040283529160200191610987565b820191906000526020600020905b81548152906001019060200180831161096a57829003601f168201915b5050838103825284818151815260200191508051906020019080838360005b838110156109c15780820151818401526020810190506109a6565b50505050905090810190601f1680156109ee5780820380516001836020036101000a031916815260200191505b5094505050505060206040518083038186803b158015610a0d57600080fd5b505af4158015610a21573d6000803e3d6000fd5b505050506040513d6020811015610a3757600080fd5b810190808051906020019092919050505015610a565760019150610a63565b8080600101915050610887565b81151515610a7057600080fd5b86600160009054906101000a900473ffffffffffffffffffffffffffffffffffffffff1673ffffffffffffffffffffffffffffffffffffffff166341976e09826040518263ffffffff167c0100000000000000000000000000000000000000000000000000000000028152600401808273ffffffffffffffffffffffffffffffffffffffff1673ffffffffffffffffffffffffffffffffffffffff168152602001915050602060405180830381600087803b158015610b2e57600080fd5b505af1158015610b42573d6000803e3d6000fd5b505050506040513d6020811015610b5857600080fd5b81019080805190602001909291905050503410151515610b7757600080fd5b876000807f789ba6f7cf2054e80c94618ed522f3f52ea04a6d85eac2eda1ff5b88c9a0e9a733604051808273ffffffffffffffffffffffffffffffffffffffff1673ffffffffffffffffffffffffffffffffffffffff16815260200191505060405180910390a1600260c0604051908101604052803373ffffffffffffffffffffffffffffffffffffffff1681526020018d73ffffffffffffffffffffffffffffffffffffffff1681526020018c81526020018b81526020018a815260200160006002811115610c4357fe5b8152509080600181540180825580915050906001820390600052602060002090600602016000909192909190915060008201518160000160006101000a81548173ffffffffffffffffffffffffffffffffffffffff021916908373ffffffffffffffffffffffffffffffffffffffff16021790555060208201518160010160006101000a81548173ffffffffffffffffffffffffffffffffffffffff021916908373ffffffffffffffffffffffffffffffffffffffff1602179055506040820151816002019080519060200190610d1b929190612764565b506060820151816003019080519060200190610d38929190612764565b506080820151816004019080519060200190610d55929190612764565b5060a08201518160050160006101000a81548160ff02191690836002811115610d7a57fe5b02179055505050506001600360003373ffffffffffffffffffffffffffffffffffffffff1673ffffffffffffffffffffffffffffffffffffffff1681526020019081526020016000206002015401600360003373ffffffffffffffffffffffffffffffffffffffff1673ffffffffffffffffffffffffffffffffffffffff168152602001908152602001600020600201819055506001600360008d73ffffffffffffffffffffffffffffffffffffffff1673ffffffffffffffffffffffffffffffffffffffff1681526020019081526020016000206002015401600360008d73ffffffffffffffffffffffffffffffffffffffff1673ffffffffffffffffffffffffffffffffffffffff16815260200190815260200160002060020181905550600160009054906101000a900473ffffffffffffffffffffffffffffffffffffffff1673ffffffffffffffffffffffffffffffffffffffff166341976e09846040518263ffffffff167c0100000000000000000000000000000000000000000000000000000000028152600401808273ffffffffffffffffffffffffffffffffffffffff1673ffffffffffffffffffffffffffffffffffffffff168152602001915050602060405180830381600087803b158015610f5757600080fd5b505af1158015610f6b573d6000803e3d6000fd5b505050506040513d6020811015610f8157600080fd5b8101908080519060200190929190505050915081340390506000811115611037573373ffffffffffffffffffffffffffffffffffffffff166108fc829081150290604051600060405180830381858888f19350505050158015610fe8573d6000803e3d6000fd5b5081600460008573ffffffffffffffffffffffffffffffffffffffff1673ffffffffffffffffffffffffffffffffffffffff168152602001908152602001600020600082825401925050819055505b5050505050505050505050565b6000809054906101000a900473ffffffffffffffffffffffffffffffffffffffff1673ffffffffffffffffffffffffffffffffffffffff163373ffffffffffffffffffffffffffffffffffffffff1614156110d3576000809054906101000a900473ffffffffffffffffffffffffffffffffffffffff1673ffffffffffffffffffffffffffffffffffffffff16ff5b565b600160009054906101000a900473ffffffffffffffffffffffffffffffffffffffff1681565b6000806000600360008573ffffffffffffffffffffffffffffffffffffffff1673ffffffffffffffffffffffffffffffffffffffff16815260200190815260200160002060000154600360008673ffffffffffffffffffffffffffffffffffffffff1673ffffffffffffffffffffffffffffffffffffffff16815260200190815260200160002060010154600360008773ffffffffffffffffffffffffffffffffffffffff1673ffffffffffffffffffffffffffffffffffffffff168152602001908152602001600020600201549250925092509193909250565b60606000806060600080600090505b6002805490508110156115e95773__StringUtils___________________________6346bdca9a60028381548110151561121b57fe5b9060005260206000209060060201600401896040518363ffffffff167c01000000000000000000000000000000000000000000000000000000000281526004018080602001806020018381038352858181546001816001161561010002031660029004815260200191508054600181600116156101000203166002900480156112e55780601f106112ba576101008083540402835291602001916112e5565b820191906000526020600020905b8154815290600101906020018083116112c857829003601f168201915b5050838103825284818151815260200191508051906020019080838360005b8381101561131f578082015181840152602081019050611304565b50505050905090810190601f16801561134c5780820380516001836020036101000a031916815260200191505b5094505050505060206040518083038186803b15801561136b57600080fd5b505af415801561137f573d6000803e3d6000fd5b505050506040513d602081101561139557600080fd5b8101908080519060200190929190505050156115dc576002818154811015156113ba57fe5b906000526020600020906006020160000160009054906101000a900473ffffffffffffffffffffffffffffffffffffffff1694506002818154811015156113fd57fe5b906000526020600020906006020160010160009054906101000a900473ffffffffffffffffffffffffffffffffffffffff16935060028181548110151561144057fe5b90600052602060002090600602016002018054600181600116156101000203166002900480601f0160208091040260200160405190810160405280929190818152602001828054600181600116156101000203166002900480156114e55780601f106114ba576101008083540402835291602001916114e5565b820191906000526020600020905b8154815290600101906020018083116114c857829003601f168201915b505050505095506002818154811015156114fb57fe5b90600052602060002090600602016003018054600181600116156101000203166002900480601f0160208091040260200160405190810160405280929190818152602001828054600181600116156101000203166002900480156115a05780601f10611575576101008083540402835291602001916115a0565b820191906000526020600020905b81548152906001019060200180831161158357829003601f168201915b505050505092506002818154811015156115b657fe5b906000526020600020906006020160050160009054906101000a900460ff1691506115e9565b80806001019150506111e5565b8585858585955095509550955095505091939590929450565b6060600060608060008060008790505b60028054905081101561194c578873ffffffffffffffffffffffffffffffffffffffff1660028281548110151561164557fe5b906000526020600020906006020160000160009054906101000a900473ffffffffffffffffffffffffffffffffffffffff1673ffffffffffffffffffffffffffffffffffffffff16141561193f576002818154811015156116a257fe5b906000526020600020906006020160010160009054906101000a900473ffffffffffffffffffffffffffffffffffffffff1695506002818154811015156116e557fe5b90600052602060002090600602016002018054600181600116156101000203166002900480601f01602080910402602001604051908101604052809291908181526020018280546001816001161561010002031660029004801561178a5780601f1061175f5761010080835404028352916020019161178a565b820191906000526020600020905b81548152906001019060200180831161176d57829003601f168201915b505050505096506002818154811015156117a057fe5b90600052602060002090600602016003018054600181600116156101000203166002900480601f0160208091040260200160405190810160405280929190818152602001828054600181600116156101000203166002900480156118455780601f1061181a57610100808354040283529160200191611845565b820191906000526020600020905b81548152906001019060200180831161182857829003601f168201915b5050505050945060028181548110151561185b57fe5b90600052602060002090600602016004018054600181600116156101000203166002900480601f0160208091040260200160405190810160405280929190818152602001828054600181600116156101000203166002900480156119005780601f106118d557610100808354040283529160200191611900565b820191906000526020600020905b8154815290600101906020018083116118e357829003601f168201915b5050505050935060028181548110151561191657fe5b906000526020600020906006020160050160009054906101000a900460ff16925080915061194c565b8080600101915050611612565b868686868686965096509650965096509650509295509295509295565b6060600060608060008060008790505b600280549050811015611cb3578873ffffffffffffffffffffffffffffffffffffffff166002828154811015156119ac57fe5b906000526020600020906006020160010160009054906101000a900473ffffffffffffffffffffffffffffffffffffffff1673ffffffffffffffffffffffffffffffffffffffff161415611ca657600281815481101515611a0957fe5b906000526020600020906006020160000160009054906101000a900473ffffffffffffffffffffffffffffffffffffffff169550600281815481101515611a4c57fe5b90600052602060002090600602016002018054600181600116156101000203166002900480601f016020809104026020016040519081016040528092919081815260200182805460018160011615610100020316600290048015611af15780601f10611ac657610100808354040283529160200191611af1565b820191906000526020600020905b815481529060010190602001808311611ad457829003601f168201915b50505050509650600281815481101515611b0757fe5b90600052602060002090600602016003018054600181600116156101000203166002900480601f016020809104026020016040519081016040528092919081815260200182805460018160011615610100020316600290048015611bac5780601f10611b8157610100808354040283529160200191611bac565b820191906000526020600020905b815481529060010190602001808311611b8f57829003601f168201915b50505050509450600281815481101515611bc257fe5b90600052602060002090600602016004018054600181600116156101000203166002900480601f016020809104026020016040519081016040528092919081815260200182805460018160011615610100020316600290048015611c675780601f10611c3c57610100808354040283529160200191611c67565b820191906000526020600020905b815481529060010190602001808311611c4a57829003601f168201915b50505050509350600281815481101515611c7d57fe5b906000526020600020906006020160050160009054906101000a900460ff169250809150611cb3565b8080600101915050611979565b868686868686965096509650965096509650509295509295509295565b600080600091505b60028054905082101561275e5773__StringUtils___________________________6346bdca9a600284815481101515611d0e57fe5b9060005260206000209060060201600401866040518363ffffffff167c0100000000000000000000000000000000000000000000000000000000028152600401808060200180602001838103835285818154600181600116156101000203166002900481526020019150805460018160011615610100020316600290048015611dd85780601f10611dad57610100808354040283529160200191611dd8565b820191906000526020600020905b815481529060010190602001808311611dbb57829003601f168201915b5050838103825284818151815260200191508051906020019080838360005b83811015611e12578082015181840152602081019050611df7565b50505050905090810190601f168015611e3f5780820380516001836020036101000a031916815260200191505b5094505050505060206040518083038186803b158015611e5e57600080fd5b505af4158015611e72573d6000803e3d6000fd5b505050506040513d6020811015611e8857600080fd5b81019080805190602001909291905050508015611f1057503373ffffffffffffffffffffffffffffffffffffffff16600283815481101515611ec657fe5b906000526020600020906006020160010160009054906101000a900473ffffffffffffffffffffffffffffffffffffffff1673ffffffffffffffffffffffffffffffffffffffff16145b8015611f5f575060006002811115611f2457fe5b600283815481101515611f3357fe5b906000526020600020906006020160050160009054906101000a900460ff166002811115611f5d57fe5b145b15612751577f486862e915c1394d45f1072ee920f5ce06606f2b7453903ab5ef67bd212ab03a33604051808273ffffffffffffffffffffffffffffffffffffffff1673ffffffffffffffffffffffffffffffffffffffff16815260200191505060405180910390a1600160009054906101000a900473ffffffffffffffffffffffffffffffffffffffff1673ffffffffffffffffffffffffffffffffffffffff166341976e0960028481548110151561201457fe5b906000526020600020906006020160010160009054906101000a900473ffffffffffffffffffffffffffffffffffffffff166040518263ffffffff167c0100000000000000000000000000000000000000000000000000000000028152600401808273ffffffffffffffffffffffffffffffffffffffff1673ffffffffffffffffffffffffffffffffffffffff168152602001915050602060405180830381600087803b1580156120c457600080fd5b505af11580156120d8573d6000803e3d6000fd5b505050506040513d60208110156120ee57600080fd5b81019080805190602001909291905050509050806004600060028581548110151561211557fe5b906000526020600020906006020160010160009054906101000a900473ffffffffffffffffffffffffffffffffffffffff1673ffffffffffffffffffffffffffffffffffffffff1673ffffffffffffffffffffffffffffffffffffffff1681526020019081526020016000206000828254039250508190555060028081111561219a57fe5b8360028111156121a657fe5b141561244c576001600360006002858154811015156121c157fe5b906000526020600020906006020160000160009054906101000a900473ffffffffffffffffffffffffffffffffffffffff1673ffffffffffffffffffffffffffffffffffffffff1673ffffffffffffffffffffffffffffffffffffffff16815260200190815260200160002060010154016003600060028581548110151561224557fe5b906000526020600020906006020160000160009054906101000a900473ffffffffffffffffffffffffffffffffffffffff1673ffffffffffffffffffffffffffffffffffffffff1673ffffffffffffffffffffffffffffffffffffffff168152602001908152602001600020600101819055506001600360006002858154811015156122cd57fe5b906000526020600020906006020160010160009054906101000a900473ffffffffffffffffffffffffffffffffffffffff1673ffffffffffffffffffffffffffffffffffffffff1673ffffffffffffffffffffffffffffffffffffffff16815260200190815260200160002060010154016003600060028581548110151561235157fe5b906000526020600020906006020160010160009054906101000a900473ffffffffffffffffffffffffffffffffffffffff1673ffffffffffffffffffffffffffffffffffffffff1673ffffffffffffffffffffffffffffffffffffffff168152602001908152602001600020600101819055506002828154811015156123d357fe5b906000526020600020906006020160000160009054906101000a900473ffffffffffffffffffffffffffffffffffffffff1673ffffffffffffffffffffffffffffffffffffffff166108fc829081150290604051600060405180830381858888f1935050505015801561244a573d6000803e3d6000fd5b505b6001600281111561245957fe5b83600281111561246557fe5b141561270b5760016003600060028581548110151561248057fe5b906000526020600020906006020160000160009054906101000a900473ffffffffffffffffffffffffffffffffffffffff1673ffffffffffffffffffffffffffffffffffffffff1673ffffffffffffffffffffffffffffffffffffffff16815260200190815260200160002060010154016003600060028581548110151561250457fe5b906000526020600020906006020160000160009054906101000a900473ffffffffffffffffffffffffffffffffffffffff1673ffffffffffffffffffffffffffffffffffffffff1673ffffffffffffffffffffffffffffffffffffffff1681526020019081526020016000206000018190555060016003600060028581548110151561258c57fe5b906000526020600020906006020160010160009054906101000a900473ffffffffffffffffffffffffffffffffffffffff1673ffffffffffffffffffffffffffffffffffffffff1673ffffffffffffffffffffffffffffffffffffffff16815260200190815260200160002060000154016003600060028581548110151561261057fe5b906000526020600020906006020160010160009054906101000a900473ffffffffffffffffffffffffffffffffffffffff1673ffffffffffffffffffffffffffffffffffffffff1673ffffffffffffffffffffffffffffffffffffffff1681526020019081526020016000206000018190555060028281548110151561269257fe5b906000526020600020906006020160010160009054906101000a900473ffffffffffffffffffffffffffffffffffffffff1673ffffffffffffffffffffffffffffffffffffffff166108fc829081150290604051600060405180830381858888f19350505050158015612709573d6000803e3d6000fd5b505b8260028381548110151561271b57fe5b906000526020600020906006020160050160006101000a81548160ff0219169083600281111561274757fe5b021790555061275e565b8180600101925050611cd8565b50505050565b828054600181600116156101000203166002900490600052602060002090601f016020900481019282601f106127a557805160ff19168380011785556127d3565b828001600101855582156127d3579182015b828111156127d25782518255916020019190600101906127b7565b5b5090506127e091906127e4565b5090565b61280691905b808211156128025760008160009055506001016127ea565b5090565b905600a165627a7a723058209039eb71c4e68f3dcab9237e6f9771ca3bff1421b6255bafc2c9edd6cb4b5b500029",
  "source": "pragma solidity ^0.4.24;\n\nimport \"./StringUtils.sol\";\nimport \"./Accounts.sol\";\n\n/** @title Documents. */\ncontract Documents {\n    \n  address private owner;\n  address public accountsAddress;\n  Document[] private documents;\n  mapping (address => Count) private counts;\n  enum DocStatus {Pending, Verified, Rejected}\n  mapping (address => uint) balances;\n \n  struct Document {\n    address requester;\n    address verifier;\n    string name;\n    string description;\n    string docAddress;\n    DocStatus status;\n  }\n  \n  struct Count {\n    uint verified;\n    uint rejected;\n    uint total;\n  }\n\n  event DocumentAdded (address user);\n  event DocumentVerified (address user);\n  event test (uint test);\n\n  /** @dev check for document address exists.\n      * @param _docAddress document address.\n      */\n  modifier docAddressExists(string _docAddress) \n  {\n    bool found = false;\n    for (uint i=0; i<documents.length; i++) {\n      if (StringUtils.equal(documents[i].docAddress, _docAddress)) {\n          found = true;\n          break; \n      }\n    }\n    require(!found);\n    _;\n  }\n\n  /** @dev check for user paid enough.\n      * @param addr user address.\n      */\n  modifier paidEnough(address addr) { \n    require(msg.value >= Accounts(accountsAddress).getPrice(addr));\n    _;\n  }\n\n  /** @dev refund extra amount sent.\n      * @param addr user address.\n      */\n  modifier refund(address addr) {\n    //refund extra ether received\n    _;\n    uint price = Accounts(accountsAddress).getPrice(addr);\n    uint amountToRefund = msg.value - price;\n    if(amountToRefund > 0){\n        msg.sender.transfer(amountToRefund);\n        \n        balances[addr] += price;\n    }\n  }\n\n  constructor(address acctAddr) \n  public \n  {\n    owner = msg.sender;\n    accountsAddress = acctAddr;\n  }\n  /** @dev add document.\n      * @param _verifier verifier address.\n      * @param _name document name.\n      * @param _description document _description.\n      * @param _docAddress document _docAddress.\n      */\n  function addDocument(address _verifier, string _name, string _description, string _docAddress) \n  public \n  payable\n  docAddressExists(_docAddress)\n  paidEnough(_verifier)\n  refund(_verifier)\n  {\n    emit DocumentAdded(msg.sender);\n    \n    documents.push(\n      Document({\n        name: _name,\n        requester: msg.sender,\n        verifier: _verifier,\n        description: _description,\n        docAddress: _docAddress,\n        status: DocStatus.Pending\n      })\n    );\n    \n    counts[msg.sender].total = counts[msg.sender].total + 1;\n    counts[_verifier].total = counts[_verifier].total + 1;\n  }\n\n  /** @dev get document.\n      * @param docAddress document address.\n      * @return name document name.\n      * @return requester document requester.\n      * @return verifier document verifier.\n      * @return description document description.\n      * @return status document status.\n      */\n  function getDocument(string docAddress) \n  public \n  view \n  returns (string name, address requester, address verifier, string description, DocStatus status) {\n    for (uint i=0; i<documents.length; i++) {\n      if(StringUtils.equal(documents[i].docAddress, docAddress)){\n        requester = documents[i].requester;\n        verifier = documents[i].verifier;\n        name = documents[i].name;\n        description = documents[i].description;\n        status = documents[i].status;\n        break;\n      }\n    }\n    return (name, requester, verifier, description, status);\n  }\n  \n  /** @dev get Verifier document.\n      * @param _verifier user address.\n      * @param lIndex document index.\n      * @return name document name.\n      * @return requester document requester.\n      * @return description document description.\n      * @return docAddress document docAddress.\n      * @return status document status.\n      * @return index document index.\n      */  \n  function getVerifierDocuments(address _verifier, uint lIndex) \n  public \n  view \n  returns (string name, address requester, string description, string docAddress, DocStatus status, uint index) {\n    for (uint i=lIndex; i<documents.length; i++) {\n      if(documents[i].verifier == _verifier){\n        requester = documents[i].requester;\n        name = documents[i].name;\n        description = documents[i].description;\n        docAddress = documents[i].docAddress;\n        status = documents[i].status;\n        index = i;\n        break;\n      }\n    }\n    return (name, requester, description, docAddress, status, index);\n  }\n  \n  /** @dev get requester document.\n      * @param _requester user address.\n      * @param lIndex document index.\n      * @return name document name.\n      * @return verifier document verifier.\n      * @return description document description.\n      * @return docAddress document docAddress.\n      * @return status document status.\n      * @return index document index.\n      */  \n  function getRequesterDocuments(address _requester, uint lIndex) \n  public \n  view \n  returns (string name, address verifier, string description, string docAddress, DocStatus status, uint index) {\n    for (uint i=lIndex; i<documents.length; i++) {\n      if(documents[i].requester == _requester){\n        verifier = documents[i].verifier;\n        name = documents[i].name;\n        description = documents[i].description;\n        docAddress = documents[i].docAddress;\n        status = documents[i].status;\n        index = i;\n        break;\n      }\n    }\n    return (name, verifier, description, docAddress, status, index);\n  }\n  \n  /** @dev verify document.\n      * @param docAddress document address.\n      * @param status document status.\n      */   \n  function verifyDocument(string docAddress, DocStatus status) \n  public \n  payable\n  {\n    for (uint i=0; i<documents.length; i++) {\n      if(StringUtils.equal(documents[i].docAddress, docAddress) && documents[i].verifier == msg.sender && documents[i].status == DocStatus.Pending){\n        emit DocumentVerified(msg.sender);\n        uint price = Accounts(accountsAddress).getPrice(documents[i].verifier);\n        balances[documents[i].verifier] -= price;\n        if(status == DocStatus.Rejected){\n            counts[documents[i].requester].rejected = counts[documents[i].requester].rejected + 1;\n            counts[documents[i].verifier].rejected = counts[documents[i].verifier].rejected + 1;\n            // return the ether for rejection\n            documents[i].requester.transfer(price);\n        }\n        if(status == DocStatus.Verified){\n            counts[documents[i].requester].verified = counts[documents[i].requester].rejected + 1;\n            counts[documents[i].verifier].verified = counts[documents[i].verifier].verified + 1;\n            // send ether to verified account\n            documents[i].verifier.transfer(price);\n        }\n        documents[i].status = status;\n        break;\n      }\n    }\n  }\n\n  /** @dev get count for users.\n      * @param account user address.\n      * @return verified count.\n      * @return rejected count.\n      * @return total count.\n      */ \n  function getCounts (address account) \n  public \n  view\n  returns(uint verified, uint rejected, uint total) \n  {\n    return (counts[account].verified, counts[account].rejected, counts[account].total);\n  }\n\n  /** @dev kill smart contract if something bad happens.\n      */\n  function kill() \n  public \n  {\n    if (msg.sender == owner) selfdestruct(owner);\n  }\n}",
  "sourcePath": "/home/rumeelhussain/Desktop/Consensys-Academy-FP/contracts/Documents.sol",
  "compiler": {
    "name": "solc",
    "version": "0.4.24+commit.e67f0147.Emscripten.clang"
  },
  "schemaVersion": "2.0.1",
  "updatedAt": "2019-01-14T11:56:38.800Z"
}