{
  "contractName": "Accounts",
  "abi": [
    {
      "inputs": [],
      "payable": false,
      "stateMutability": "nonpayable",
      "type": "constructor"
    },
    {
      "anonymous": false,
      "inputs": [
        {
          "indexed": false,
          "name": "user",
          "type": "address"
        }
      ],
      "name": "Registered",
      "type": "event"
    },
    {
      "constant": false,
      "inputs": [
        {
          "name": "_name",
          "type": "string"
        },
        {
          "name": "_email",
          "type": "string"
        },
        {
          "name": "_logo",
          "type": "string"
        },
        {
          "name": "_description",
          "type": "string"
        },
        {
          "name": "_aType",
          "type": "uint8"
        },
        {
          "name": "price",
          "type": "uint256"
        }
      ],
      "name": "register",
      "outputs": [],
      "payable": true,
      "stateMutability": "payable",
      "type": "function"
    },
    {
      "constant": true,
      "inputs": [],
      "name": "getAccount",
      "outputs": [
        {
          "name": "name",
          "type": "string"
        },
        {
          "name": "email",
          "type": "string"
        },
        {
          "name": "logo",
          "type": "string"
        },
        {
          "name": "description",
          "type": "string"
        },
        {
          "name": "aType",
          "type": "uint8"
        },
        {
          "name": "price",
          "type": "uint256"
        }
      ],
      "payable": false,
      "stateMutability": "view",
      "type": "function"
    },
    {
      "constant": true,
      "inputs": [],
      "name": "verifiersCount",
      "outputs": [
        {
          "name": "total",
          "type": "uint256"
        }
      ],
      "payable": false,
      "stateMutability": "view",
      "type": "function"
    },
    {
      "constant": true,
      "inputs": [
        {
          "name": "pIndex",
          "type": "uint256"
        }
      ],
      "name": "getVerifier",
      "outputs": [
        {
          "name": "verifier",
          "type": "address"
        },
        {
          "name": "name",
          "type": "string"
        },
        {
          "name": "email",
          "type": "string"
        },
        {
          "name": "logo",
          "type": "string"
        },
        {
          "name": "description",
          "type": "string"
        },
        {
          "name": "aType",
          "type": "uint8"
        },
        {
          "name": "price",
          "type": "uint256"
        }
      ],
      "payable": false,
      "stateMutability": "view",
      "type": "function"
    },
    {
      "constant": true,
      "inputs": [
        {
          "name": "_account",
          "type": "address"
        }
      ],
      "name": "getPrice",
      "outputs": [
        {
          "name": "price",
          "type": "uint256"
        }
      ],
      "payable": false,
      "stateMutability": "view",
      "type": "function"
    },
    {
      "constant": false,
      "inputs": [],
      "name": "kill",
      "outputs": [],
      "payable": false,
      "stateMutability": "nonpayable",
      "type": "function"
    }
  ],
  "bytecode": "0x608060405234801561001057600080fd5b50336000806101000a81548173ffffffffffffffffffffffffffffffffffffffff021916908373ffffffffffffffffffffffffffffffffffffffff1602179055506114b4806100606000396000f300608060405260043610610077576000357c0100000000000000000000000000000000000000000000000000000000900463ffffffff1680621b63b21461007c5780633561bc27146101c157806341976e09146103fa57806341c0e1b5146104515780637f05c82814610468578063db613e8114610493575b600080fd5b6101bf600480360381019080803590602001908201803590602001908080601f0160208091040260200160405190810160405280939291908181526020018383808284378201915050505050509192919290803590602001908201803590602001908080601f0160208091040260200160405190810160405280939291908181526020018383808284378201915050505050509192919290803590602001908201803590602001908080601f0160208091040260200160405190810160405280939291908181526020018383808284378201915050505050509192919290803590602001908201803590602001908080601f0160208091040260200160405190810160405280939291908181526020018383808284378201915050505050509192919290803560ff16906020019092919080359060200190929190505050610683565b005b3480156101cd57600080fd5b506101ec60048036038101908080359060200190929190505050610a56565b604051808873ffffffffffffffffffffffffffffffffffffffff1673ffffffffffffffffffffffffffffffffffffffff1681526020018060200180602001806020018060200187600181111561023e57fe5b60ff16815260200186815260200185810385528b818151815260200191508051906020019080838360005b83811015610284578082015181840152602081019050610269565b50505050905090810190601f1680156102b15780820380516001836020036101000a031916815260200191505b5085810384528a818151815260200191508051906020019080838360005b838110156102ea5780820151818401526020810190506102cf565b50505050905090810190601f1680156103175780820380516001836020036101000a031916815260200191505b50858103835289818151815260200191508051906020019080838360005b83811015610350578082015181840152602081019050610335565b50505050905090810190601f16801561037d5780820380516001836020036101000a031916815260200191505b50858103825288818151815260200191508051906020019080838360005b838110156103b657808201518184015260208101905061039b565b50505050905090810190601f1680156103e35780820380516001836020036101000a031916815260200191505b509b50505050505050505050505060405180910390f35b34801561040657600080fd5b5061043b600480360381019080803573ffffffffffffffffffffffffffffffffffffffff169060200190929190505050610ecb565b6040518082815260200191505060405180910390f35b34801561045d57600080fd5b50610466610f17565b005b34801561047457600080fd5b5061047d610fa8565b6040518082815260200191505060405180910390f35b34801561049f57600080fd5b506104a8610fb5565b60405180806020018060200180602001806020018760018111156104c857fe5b60ff16815260200186815260200185810385528b818151815260200191508051906020019080838360005b8381101561050e5780820151818401526020810190506104f3565b50505050905090810190601f16801561053b5780820380516001836020036101000a031916815260200191505b5085810384528a818151815260200191508051906020019080838360005b83811015610574578082015181840152602081019050610559565b50505050905090810190601f1680156105a15780820380516001836020036101000a031916815260200191505b50858103835289818151815260200191508051906020019080838360005b838110156105da5780820151818401526020810190506105bf565b50505050905090810190601f1680156106075780820380516001836020036101000a031916815260200191505b50858103825288818151815260200191508051906020019080838360005b83811015610640578082015181840152602081019050610625565b50505050905090810190601f16801561066d5780820380516001836020036101000a031916815260200191505b509a505050505050505050505060405180910390f35b8473__EmailRegex____________________________6332ac752b826040518263ffffffff167c01000000000000000000000000000000000000000000000000000000000281526004018080602001828103825283818151815260200191508051906020019080838360005b8381101561070a5780820151818401526020810190506106ef565b50505050905090810190601f1680156107375780820380516001836020036101000a031916815260200191505b509250505060206040518083038186803b15801561075457600080fd5b505af4158015610768573d6000803e3d6000fd5b505050506040513d602081101561077e57600080fd5b8101908080519060200190929190505050151561079a57600080fd5b826000807f2d3734a8e47ac8316e500ac231c90a6e1848ca2285f40d07eaa52005e4b3a0e933604051808273ffffffffffffffffffffffffffffffffffffffff1673ffffffffffffffffffffffffffffffffffffffff16815260200191505060405180910390a160c0604051908101604052808b81526020018a815260200189815260200188815260200187600181111561083157fe5b815260200186815250600160003373ffffffffffffffffffffffffffffffffffffffff1673ffffffffffffffffffffffffffffffffffffffff16815260200190815260200160002060008201518160000190805190602001906108959291906113e3565b5060208201518160010190805190602001906108b29291906113e3565b5060408201518160020190805190602001906108cf9291906113e3565b5060608201518160030190805190602001906108ec9291906113e3565b5060808201518160040160006101000a81548160ff0219169083600181111561091157fe5b021790555060a082015181600501559050506000600181111561093057fe5b83600181111561093c57fe5b1415610a4a5760009150600090505b6002805490508110156109db5760028181548110151561096757fe5b9060005260206000200160009054906101000a900473ffffffffffffffffffffffffffffffffffffffff1673ffffffffffffffffffffffffffffffffffffffff163373ffffffffffffffffffffffffffffffffffffffff1614156109ce57600191506109db565b808060010191505061094b565b811515610a495760023390806001815401808255809150509060018203906000526020600020016000909192909190916101000a81548173ffffffffffffffffffffffffffffffffffffffff021916908373ffffffffffffffffffffffffffffffffffffffff160217905550505b5b50505050505050505050565b60006060806060806000806000600289815481101515610a7257fe5b9060005260206000200160009054906101000a900473ffffffffffffffffffffffffffffffffffffffff169050600160008273ffffffffffffffffffffffffffffffffffffffff1673ffffffffffffffffffffffffffffffffffffffff1681526020019081526020016000206000018054600181600116156101000203166002900480601f016020809104026020016040519081016040528092919081815260200182805460018160011615610100020316600290048015610b755780601f10610b4a57610100808354040283529160200191610b75565b820191906000526020600020905b815481529060010190602001808311610b5857829003601f168201915b50505050509650600160008273ffffffffffffffffffffffffffffffffffffffff1673ffffffffffffffffffffffffffffffffffffffff1681526020019081526020016000206001018054600181600116156101000203166002900480601f016020809104026020016040519081016040528092919081815260200182805460018160011615610100020316600290048015610c525780601f10610c2757610100808354040283529160200191610c52565b820191906000526020600020905b815481529060010190602001808311610c3557829003601f168201915b50505050509550600160008273ffffffffffffffffffffffffffffffffffffffff1673ffffffffffffffffffffffffffffffffffffffff1681526020019081526020016000206002018054600181600116156101000203166002900480601f016020809104026020016040519081016040528092919081815260200182805460018160011615610100020316600290048015610d2f5780601f10610d0457610100808354040283529160200191610d2f565b820191906000526020600020905b815481529060010190602001808311610d1257829003601f168201915b50505050509450600160008273ffffffffffffffffffffffffffffffffffffffff1673ffffffffffffffffffffffffffffffffffffffff1681526020019081526020016000206003018054600181600116156101000203166002900480601f016020809104026020016040519081016040528092919081815260200182805460018160011615610100020316600290048015610e0c5780601f10610de157610100808354040283529160200191610e0c565b820191906000526020600020905b815481529060010190602001808311610def57829003601f168201915b50505050509350600160008273ffffffffffffffffffffffffffffffffffffffff1673ffffffffffffffffffffffffffffffffffffffff16815260200190815260200160002060040160009054906101000a900460ff169250600160008273ffffffffffffffffffffffffffffffffffffffff1673ffffffffffffffffffffffffffffffffffffffff16815260200190815260200160002060050154915080878787878787975097509750975097509750975050919395979092949650565b6000600160008373ffffffffffffffffffffffffffffffffffffffff1673ffffffffffffffffffffffffffffffffffffffff168152602001908152602001600020600501549050919050565b6000809054906101000a900473ffffffffffffffffffffffffffffffffffffffff1673ffffffffffffffffffffffffffffffffffffffff163373ffffffffffffffffffffffffffffffffffffffff161415610fa6576000809054906101000a900473ffffffffffffffffffffffffffffffffffffffff1673ffffffffffffffffffffffffffffffffffffffff16ff5b565b6000600280549050905090565b606080606080600080600160003373ffffffffffffffffffffffffffffffffffffffff1673ffffffffffffffffffffffffffffffffffffffff1681526020019081526020016000206000018054600181600116156101000203166002900480601f0160208091040260200160405190810160405280929190818152602001828054600181600116156101000203166002900480156110945780601f1061106957610100808354040283529160200191611094565b820191906000526020600020905b81548152906001019060200180831161107757829003601f168201915b50505050509550600160003373ffffffffffffffffffffffffffffffffffffffff1673ffffffffffffffffffffffffffffffffffffffff1681526020019081526020016000206001018054600181600116156101000203166002900480601f0160208091040260200160405190810160405280929190818152602001828054600181600116156101000203166002900480156111715780601f1061114657610100808354040283529160200191611171565b820191906000526020600020905b81548152906001019060200180831161115457829003601f168201915b50505050509450600160003373ffffffffffffffffffffffffffffffffffffffff1673ffffffffffffffffffffffffffffffffffffffff1681526020019081526020016000206002018054600181600116156101000203166002900480601f01602080910402602001604051908101604052809291908181526020018280546001816001161561010002031660029004801561124e5780601f106112235761010080835404028352916020019161124e565b820191906000526020600020905b81548152906001019060200180831161123157829003601f168201915b50505050509350600160003373ffffffffffffffffffffffffffffffffffffffff1673ffffffffffffffffffffffffffffffffffffffff1681526020019081526020016000206003018054600181600116156101000203166002900480601f01602080910402602001604051908101604052809291908181526020018280546001816001161561010002031660029004801561132b5780601f106113005761010080835404028352916020019161132b565b820191906000526020600020905b81548152906001019060200180831161130e57829003601f168201915b50505050509250600160003373ffffffffffffffffffffffffffffffffffffffff1673ffffffffffffffffffffffffffffffffffffffff16815260200190815260200160002060040160009054906101000a900460ff169150600160003373ffffffffffffffffffffffffffffffffffffffff1673ffffffffffffffffffffffffffffffffffffffff168152602001908152602001600020600501549050858585858585955095509550955095509550909192939495565b828054600181600116156101000203166002900490600052602060002090601f016020900481019282601f1061142457805160ff1916838001178555611452565b82800160010185558215611452579182015b82811115611451578251825591602001919060010190611436565b5b50905061145f9190611463565b5090565b61148591905b80821115611481576000816000905550600101611469565b5090565b905600a165627a7a7230582084c0f0b0fd31175314cba3960118d6683aa5e8fc67219d6d460ecee65c882bb90029",
  "source": "pragma solidity ^0.4.24;\n\nimport \"./EmailRegex.sol\";\nimport \"./StringUtils.sol\";\n\n/** @title Accounts. */\ncontract Accounts {\n    \n  address private owner;\n  mapping (address => account) private accounts;\n  address[] private verifiers;\n  \n  enum AccountType {Verifier, Requester}\n  struct account \n  {\n    string name;\n    string email;\n    string logo;\n    string description;\n    AccountType aType;\n    uint verificationPrice;\n  }\n\n  event Registered (address user);\n  \n  /** @dev check for the valid email address.\n      * @param _email email address.\n      * @return bool require.\n      */\n  modifier isEmailValid(string _email) \n  {\n    require(EmailRegex.matches(_email));\n    _;\n  }\n\n  /** @dev adds verifiers address if not exists .\n      * @param _aType AccountType.\n      */\n  modifier addVerifier(AccountType _aType)\n  {\n      _;\n      if(_aType == AccountType.Verifier){\n        bool found = false;\n        for (uint i=0; i<verifiers.length; i++) {\n          if (msg.sender == verifiers[i]) {\n              found = true;\n              break; \n          }\n        }\n        if(!found){\n            verifiers.push(msg.sender);   \n        }\n    }\n  }\n\n  constructor() \n  public \n  {\n    owner = msg.sender;\n  }\n\n  /** @dev update user account details.\n      * @param _name user name.\n      * @param _email user email.\n      * @param _logo user logo.\n      * @param _description user description.\n      * @param _aType user aType.\n      * @param price document verification price.\n      */\n  function register(string _name, string _email, string _logo, string _description, AccountType _aType, uint price) \n  public \n  payable\n  isEmailValid(_email)\n  addVerifier(_aType)\n  {\n    emit Registered(msg.sender);\n    accounts[msg.sender] = account({\n      name: _name, \n      email: _email, \n      logo: _logo, \n      description: _description,\n      aType: _aType,\n      verificationPrice: price\n    });\n  }\n\n  /** @dev get user account details.\n      * @return _name user name.\n      * @return _email user email.\n      * @return _logo user logo.\n      * @return _description user description.\n      * @return _aType user aType.\n      * @return price document verification price.\n      */\n  function getAccount() \n  public \n  view \n  returns (string name, string email, string logo, string description, AccountType aType, uint price) \n  {\n    name = accounts[msg.sender].name;\n    email = accounts[msg.sender].email;\n    logo = accounts[msg.sender].logo;\n    description = accounts[msg.sender].description;\n    aType = accounts[msg.sender].aType;\n    price = accounts[msg.sender].verificationPrice;\n    return (name, email, logo, description, aType, price);\n  }\n\n  /** @dev get verifiers count.\n      * @return total verifiers count.\n      */\n  function verifiersCount() \n  public \n  view \n  returns (uint total) {\n      return verifiers.length;\n  }\n\n  /** @dev get verifier details.\n      * @param pIndex index number.\n      * @return verifierAddr verifier address.\n      * @return _name user name.\n      * @return _email user email.\n      * @return _logo user logo.\n      * @return _description user description.\n      * @return _aType user aType.\n      * @return price document verification price.\n      */\n  function getVerifier(uint pIndex)\n  public \n  view\n  returns (address verifier, string name, string email, string logo, string description, AccountType aType, uint price) \n  {\n    address verifierAddr = verifiers[pIndex];\n    name = accounts[verifierAddr].name;\n    email = accounts[verifierAddr].email;\n    logo = accounts[verifierAddr].logo;\n    description = accounts[verifierAddr].description;\n    aType = accounts[verifierAddr].aType;\n    price = accounts[verifierAddr].verificationPrice;\n    return (verifierAddr, name, email, logo, description, aType, price);\n  }\n  \n  /** @dev get verification price of verifier.\n      * @param _account verifier address.\n      * @return price document verification price.\n      */\n  function getPrice(address _account)\n  public \n  view\n  returns(uint price){\n    return (accounts[_account].verificationPrice);\n  }\n\n  /** @dev kill smart contract if something bad happens.\n      */\n  function kill() \n  public \n  {\n    if (msg.sender == owner) selfdestruct(owner);\n  }\n  \n}",
  "sourcePath": "/home/rumeelhussain/Desktop/Consensys-Academy-FP/contracts/Accounts.sol",
  "compiler": {
    "name": "solc",
    "version": "0.4.24+commit.e67f0147.Emscripten.clang"
  },
  "schemaVersion": "2.0.1",
  "updatedAt": "2019-01-14T11:56:38.781Z"
}