{
  "contractName": "EmailRegex",
  "abi": [
    {
      "constant": true,
      "inputs": [
        {
          "name": "input",
          "type": "string"
        }
      ],
      "name": "matches",
      "outputs": [
        {
          "name": "",
          "type": "bool"
        }
      ],
      "payable": false,
      "stateMutability": "pure",
      "type": "function"
    }
  ],
  "bytecode": "0x61332f610030600b82828239805160001a6073146000811461002057610022565bfe5b5030600052607381538281f3007300000000000000000000000000000000000000003014608060405260043610610058576000357c0100000000000000000000000000000000000000000000000000000000900463ffffffff16806332ac752b1461005d575b600080fd5b6100b7600480360381019080803590602001908201803590602001908080601f01602080910402602001604051908101604052809392919081815260200183838082843782019150505050505091929192905050506100d1565b604051808215151515815260200191505060405180910390f35b60008060008060019250600091505b845182101561017e5784828151811015156100f757fe5b9060200101517f010000000000000000000000000000000000000000000000000000000000000090047f010000000000000000000000000000000000000000000000000000000000000002905061015d8161015185610196565b6020015163ffffffff16565b92506000831415610171576000935061018e565b81806001019250506100e0565b61018783610196565b6000015193505b505050919050565b61019e6132e4565b60018214156101c85760408051908101604052806000151581526020016103488152509050610343565b60028214156101f25760408051908101604052806000151581526020016108638152509050610343565b600382141561021c576040805190810160405280600015158152602001610e268152509050610343565b60048214156102465760408051908101604052806000151581526020016113e98152509050610343565b60058214156102705760408051908101604052806000151581526020016117c28152509050610343565b600682141561029a576040805190810160405280600015158152602001611c438152509050610343565b60078214156102c45760408051908101604052806000151581526020016120cb8152509050610343565b60088214156102ee57604080519081016040528060001515815260200161254c8152509050610343565b60098214156103185760408051908101604052806001151581526020016129d48152509050610343565b600a821415610342576040805190810160405280600115158152602001612e5c8152509050610343565b5b919050565b600060257f010000000000000000000000000000000000000000000000000000000000000002827effffffffffffffffffffffffffffffffffffffffffffffffffffffffffffff1916101580156103e4575060257f010000000000000000000000000000000000000000000000000000000000000002827effffffffffffffffffffffffffffffffffffffffffffffffffffffffffffff191611155b806104855750602b7f010000000000000000000000000000000000000000000000000000000000000002827effffffffffffffffffffffffffffffffffffffffffffffffffffffffffffff1916101580156104845750602b7f010000000000000000000000000000000000000000000000000000000000000002827effffffffffffffffffffffffffffffffffffffffffffffffffffffffffffff191611155b5b806105265750602d7f010000000000000000000000000000000000000000000000000000000000000002827effffffffffffffffffffffffffffffffffffffffffffffffffffffffffffff1916101580156105255750602d7f010000000000000000000000000000000000000000000000000000000000000002827effffffffffffffffffffffffffffffffffffffffffffffffffffffffffffff191611155b5b806105c75750602e7f010000000000000000000000000000000000000000000000000000000000000002827effffffffffffffffffffffffffffffffffffffffffffffffffffffffffffff1916101580156105c65750602e7f010000000000000000000000000000000000000000000000000000000000000002827effffffffffffffffffffffffffffffffffffffffffffffffffffffffffffff191611155b5b80610668575060307f010000000000000000000000000000000000000000000000000000000000000002827effffffffffffffffffffffffffffffffffffffffffffffffffffffffffffff191610158015610667575060397f010000000000000000000000000000000000000000000000000000000000000002827effffffffffffffffffffffffffffffffffffffffffffffffffffffffffffff191611155b5b80610709575060417f010000000000000000000000000000000000000000000000000000000000000002827effffffffffffffffffffffffffffffffffffffffffffffffffffffffffffff1916101580156107085750605a7f010000000000000000000000000000000000000000000000000000000000000002827effffffffffffffffffffffffffffffffffffffffffffffffffffffffffffff191611155b5b806107aa5750605f7f010000000000000000000000000000000000000000000000000000000000000002827effffffffffffffffffffffffffffffffffffffffffffffffffffffffffffff1916101580156107a95750605f7f010000000000000000000000000000000000000000000000000000000000000002827effffffffffffffffffffffffffffffffffffffffffffffffffffffffffffff191611155b5b8061084b575060617f010000000000000000000000000000000000000000000000000000000000000002827effffffffffffffffffffffffffffffffffffffffffffffffffffffffffffff19161015801561084a5750607a7f010000000000000000000000000000000000000000000000000000000000000002827effffffffffffffffffffffffffffffffffffffffffffffffffffffffffffff191611155b5b15610859576002905061085e565b600090505b919050565b600060257f010000000000000000000000000000000000000000000000000000000000000002827effffffffffffffffffffffffffffffffffffffffffffffffffffffffffffff1916101580156108ff575060257f010000000000000000000000000000000000000000000000000000000000000002827effffffffffffffffffffffffffffffffffffffffffffffffffffffffffffff191611155b806109a05750602b7f010000000000000000000000000000000000000000000000000000000000000002827effffffffffffffffffffffffffffffffffffffffffffffffffffffffffffff19161015801561099f5750602b7f010000000000000000000000000000000000000000000000000000000000000002827effffffffffffffffffffffffffffffffffffffffffffffffffffffffffffff191611155b5b80610a415750602d7f010000000000000000000000000000000000000000000000000000000000000002827effffffffffffffffffffffffffffffffffffffffffffffffffffffffffffff191610158015610a405750602d7f010000000000000000000000000000000000000000000000000000000000000002827effffffffffffffffffffffffffffffffffffffffffffffffffffffffffffff191611155b5b80610ae25750602e7f010000000000000000000000000000000000000000000000000000000000000002827effffffffffffffffffffffffffffffffffffffffffffffffffffffffffffff191610158015610ae15750602e7f010000000000000000000000000000000000000000000000000000000000000002827effffffffffffffffffffffffffffffffffffffffffffffffffffffffffffff191611155b5b80610b83575060307f010000000000000000000000000000000000000000000000000000000000000002827effffffffffffffffffffffffffffffffffffffffffffffffffffffffffffff191610158015610b82575060397f010000000000000000000000000000000000000000000000000000000000000002827effffffffffffffffffffffffffffffffffffffffffffffffffffffffffffff191611155b5b80610c24575060417f010000000000000000000000000000000000000000000000000000000000000002827effffffffffffffffffffffffffffffffffffffffffffffffffffffffffffff191610158015610c235750605a7f010000000000000000000000000000000000000000000000000000000000000002827effffffffffffffffffffffffffffffffffffffffffffffffffffffffffffff191611155b5b80610cc55750605f7f010000000000000000000000000000000000000000000000000000000000000002827effffffffffffffffffffffffffffffffffffffffffffffffffffffffffffff191610158015610cc45750605f7f010000000000000000000000000000000000000000000000000000000000000002827effffffffffffffffffffffffffffffffffffffffffffffffffffffffffffff191611155b5b80610d66575060617f010000000000000000000000000000000000000000000000000000000000000002827effffffffffffffffffffffffffffffffffffffffffffffffffffffffffffff191610158015610d655750607a7f010000000000000000000000000000000000000000000000000000000000000002827effffffffffffffffffffffffffffffffffffffffffffffffffffffffffffff191611155b5b15610d745760039050610e21565b60407f010000000000000000000000000000000000000000000000000000000000000002827effffffffffffffffffffffffffffffffffffffffffffffffffffffffffffff191610158015610e0e575060407f010000000000000000000000000000000000000000000000000000000000000002827effffffffffffffffffffffffffffffffffffffffffffffffffffffffffffff191611155b15610e1c5760049050610e21565b600090505b919050565b600060257f010000000000000000000000000000000000000000000000000000000000000002827effffffffffffffffffffffffffffffffffffffffffffffffffffffffffffff191610158015610ec2575060257f010000000000000000000000000000000000000000000000000000000000000002827effffffffffffffffffffffffffffffffffffffffffffffffffffffffffffff191611155b80610f635750602b7f010000000000000000000000000000000000000000000000000000000000000002827effffffffffffffffffffffffffffffffffffffffffffffffffffffffffffff191610158015610f625750602b7f010000000000000000000000000000000000000000000000000000000000000002827effffffffffffffffffffffffffffffffffffffffffffffffffffffffffffff191611155b5b806110045750602d7f010000000000000000000000000000000000000000000000000000000000000002827effffffffffffffffffffffffffffffffffffffffffffffffffffffffffffff1916101580156110035750602d7f010000000000000000000000000000000000000000000000000000000000000002827effffffffffffffffffffffffffffffffffffffffffffffffffffffffffffff191611155b5b806110a55750602e7f010000000000000000000000000000000000000000000000000000000000000002827effffffffffffffffffffffffffffffffffffffffffffffffffffffffffffff1916101580156110a45750602e7f010000000000000000000000000000000000000000000000000000000000000002827effffffffffffffffffffffffffffffffffffffffffffffffffffffffffffff191611155b5b80611146575060307f010000000000000000000000000000000000000000000000000000000000000002827effffffffffffffffffffffffffffffffffffffffffffffffffffffffffffff191610158015611145575060397f010000000000000000000000000000000000000000000000000000000000000002827effffffffffffffffffffffffffffffffffffffffffffffffffffffffffffff191611155b5b806111e7575060417f010000000000000000000000000000000000000000000000000000000000000002827effffffffffffffffffffffffffffffffffffffffffffffffffffffffffffff1916101580156111e65750605a7f010000000000000000000000000000000000000000000000000000000000000002827effffffffffffffffffffffffffffffffffffffffffffffffffffffffffffff191611155b5b806112885750605f7f010000000000000000000000000000000000000000000000000000000000000002827effffffffffffffffffffffffffffffffffffffffffffffffffffffffffffff1916101580156112875750605f7f010000000000000000000000000000000000000000000000000000000000000002827effffffffffffffffffffffffffffffffffffffffffffffffffffffffffffff191611155b5b80611329575060617f010000000000000000000000000000000000000000000000000000000000000002827effffffffffffffffffffffffffffffffffffffffffffffffffffffffffffff1916101580156113285750607a7f010000000000000000000000000000000000000000000000000000000000000002827effffffffffffffffffffffffffffffffffffffffffffffffffffffffffffff191611155b5b1561133757600390506113e4565b60407f010000000000000000000000000000000000000000000000000000000000000002827effffffffffffffffffffffffffffffffffffffffffffffffffffffffffffff1916101580156113d1575060407f010000000000000000000000000000000000000000000000000000000000000002827effffffffffffffffffffffffffffffffffffffffffffffffffffffffffffff191611155b156113df57600490506113e4565b600090505b919050565b6000602e7f010000000000000000000000000000000000000000000000000000000000000002827effffffffffffffffffffffffffffffffffffffffffffffffffffffffffffff1916101580156114855750602f7f010000000000000000000000000000000000000000000000000000000000000002827effffffffffffffffffffffffffffffffffffffffffffffffffffffffffffff191611155b80611526575060307f010000000000000000000000000000000000000000000000000000000000000002827effffffffffffffffffffffffffffffffffffffffffffffffffffffffffffff191610158015611525575060397f010000000000000000000000000000000000000000000000000000000000000002827effffffffffffffffffffffffffffffffffffffffffffffffffffffffffffff191611155b5b806115c75750603a7f010000000000000000000000000000000000000000000000000000000000000002827effffffffffffffffffffffffffffffffffffffffffffffffffffffffffffff1916101580156115c6575060407f010000000000000000000000000000000000000000000000000000000000000002827effffffffffffffffffffffffffffffffffffffffffffffffffffffffffffff191611155b5b80611668575060417f010000000000000000000000000000000000000000000000000000000000000002827effffffffffffffffffffffffffffffffffffffffffffffffffffffffffffff1916101580156116675750605a7f010000000000000000000000000000000000000000000000000000000000000002827effffffffffffffffffffffffffffffffffffffffffffffffffffffffffffff191611155b5b806117095750605b7f010000000000000000000000000000000000000000000000000000000000000002827effffffffffffffffffffffffffffffffffffffffffffffffffffffffffffff1916101580156117085750605f7f010000000000000000000000000000000000000000000000000000000000000002827effffffffffffffffffffffffffffffffffffffffffffffffffffffffffffff191611155b5b806117aa575060617f010000000000000000000000000000000000000000000000000000000000000002827effffffffffffffffffffffffffffffffffffffffffffffffffffffffffffff1916101580156117a95750607a7f010000000000000000000000000000000000000000000000000000000000000002827effffffffffffffffffffffffffffffffffffffffffffffffffffffffffffff191611155b5b156117b857600590506117bd565b600090505b919050565b6000602e7f010000000000000000000000000000000000000000000000000000000000000002827effffffffffffffffffffffffffffffffffffffffffffffffffffffffffffff19161015801561185e5750602e7f010000000000000000000000000000000000000000000000000000000000000002827effffffffffffffffffffffffffffffffffffffffffffffffffffffffffffff191611155b1561186c5760069050611c3e565b602f7f010000000000000000000000000000000000000000000000000000000000000002827effffffffffffffffffffffffffffffffffffffffffffffffffffffffffffff1916101580156119065750602f7f010000000000000000000000000000000000000000000000000000000000000002827effffffffffffffffffffffffffffffffffffffffffffffffffffffffffffff191611155b806119a7575060307f010000000000000000000000000000000000000000000000000000000000000002827effffffffffffffffffffffffffffffffffffffffffffffffffffffffffffff1916101580156119a6575060397f010000000000000000000000000000000000000000000000000000000000000002827effffffffffffffffffffffffffffffffffffffffffffffffffffffffffffff191611155b5b80611a485750603a7f010000000000000000000000000000000000000000000000000000000000000002827effffffffffffffffffffffffffffffffffffffffffffffffffffffffffffff191610158015611a47575060407f010000000000000000000000000000000000000000000000000000000000000002827effffffffffffffffffffffffffffffffffffffffffffffffffffffffffffff191611155b5b80611ae9575060417f010000000000000000000000000000000000000000000000000000000000000002827effffffffffffffffffffffffffffffffffffffffffffffffffffffffffffff191610158015611ae85750605a7f010000000000000000000000000000000000000000000000000000000000000002827effffffffffffffffffffffffffffffffffffffffffffffffffffffffffffff191611155b5b80611b8a5750605b7f010000000000000000000000000000000000000000000000000000000000000002827effffffffffffffffffffffffffffffffffffffffffffffffffffffffffffff191610158015611b895750605f7f010000000000000000000000000000000000000000000000000000000000000002827effffffffffffffffffffffffffffffffffffffffffffffffffffffffffffff191611155b5b80611c2b575060617f010000000000000000000000000000000000000000000000000000000000000002827effffffffffffffffffffffffffffffffffffffffffffffffffffffffffffff191610158015611c2a5750607a7f010000000000000000000000000000000000000000000000000000000000000002827effffffffffffffffffffffffffffffffffffffffffffffffffffffffffffff191611155b5b15611c395760079050611c3e565b600090505b919050565b6000602e7f010000000000000000000000000000000000000000000000000000000000000002827effffffffffffffffffffffffffffffffffffffffffffffffffffffffffffff191610158015611cdf5750602e7f010000000000000000000000000000000000000000000000000000000000000002827effffffffffffffffffffffffffffffffffffffffffffffffffffffffffffff191611155b15611ced57600690506120c6565b602f7f010000000000000000000000000000000000000000000000000000000000000002827effffffffffffffffffffffffffffffffffffffffffffffffffffffffffffff191610158015611d875750602f7f010000000000000000000000000000000000000000000000000000000000000002827effffffffffffffffffffffffffffffffffffffffffffffffffffffffffffff191611155b80611e28575060307f010000000000000000000000000000000000000000000000000000000000000002827effffffffffffffffffffffffffffffffffffffffffffffffffffffffffffff191610158015611e27575060397f010000000000000000000000000000000000000000000000000000000000000002827effffffffffffffffffffffffffffffffffffffffffffffffffffffffffffff191611155b5b80611ec95750603a7f010000000000000000000000000000000000000000000000000000000000000002827effffffffffffffffffffffffffffffffffffffffffffffffffffffffffffff191610158015611ec8575060407f010000000000000000000000000000000000000000000000000000000000000002827effffffffffffffffffffffffffffffffffffffffffffffffffffffffffffff191611155b5b80611f6a5750605b7f010000000000000000000000000000000000000000000000000000000000000002827effffffffffffffffffffffffffffffffffffffffffffffffffffffffffffff191610158015611f695750605f7f010000000000000000000000000000000000000000000000000000000000000002827effffffffffffffffffffffffffffffffffffffffffffffffffffffffffffff191611155b5b15611f7857600790506120c6565b60417f010000000000000000000000000000000000000000000000000000000000000002827effffffffffffffffffffffffffffffffffffffffffffffffffffffffffffff1916101580156120125750605a7f010000000000000000000000000000000000000000000000000000000000000002827effffffffffffffffffffffffffffffffffffffffffffffffffffffffffffff191611155b806120b3575060617f010000000000000000000000000000000000000000000000000000000000000002827effffffffffffffffffffffffffffffffffffffffffffffffffffffffffffff1916101580156120b25750607a7f010000000000000000000000000000000000000000000000000000000000000002827effffffffffffffffffffffffffffffffffffffffffffffffffffffffffffff191611155b5b156120c157600890506120c6565b600090505b919050565b6000602e7f010000000000000000000000000000000000000000000000000000000000000002827effffffffffffffffffffffffffffffffffffffffffffffffffffffffffffff1916101580156121675750602e7f010000000000000000000000000000000000000000000000000000000000000002827effffffffffffffffffffffffffffffffffffffffffffffffffffffffffffff191611155b156121755760069050612547565b602f7f010000000000000000000000000000000000000000000000000000000000000002827effffffffffffffffffffffffffffffffffffffffffffffffffffffffffffff19161015801561220f5750602f7f010000000000000000000000000000000000000000000000000000000000000002827effffffffffffffffffffffffffffffffffffffffffffffffffffffffffffff191611155b806122b0575060307f010000000000000000000000000000000000000000000000000000000000000002827effffffffffffffffffffffffffffffffffffffffffffffffffffffffffffff1916101580156122af575060397f010000000000000000000000000000000000000000000000000000000000000002827effffffffffffffffffffffffffffffffffffffffffffffffffffffffffffff191611155b5b806123515750603a7f010000000000000000000000000000000000000000000000000000000000000002827effffffffffffffffffffffffffffffffffffffffffffffffffffffffffffff191610158015612350575060407f010000000000000000000000000000000000000000000000000000000000000002827effffffffffffffffffffffffffffffffffffffffffffffffffffffffffffff191611155b5b806123f2575060417f010000000000000000000000000000000000000000000000000000000000000002827effffffffffffffffffffffffffffffffffffffffffffffffffffffffffffff1916101580156123f15750605a7f010000000000000000000000000000000000000000000000000000000000000002827effffffffffffffffffffffffffffffffffffffffffffffffffffffffffffff191611155b5b806124935750605b7f010000000000000000000000000000000000000000000000000000000000000002827effffffffffffffffffffffffffffffffffffffffffffffffffffffffffffff1916101580156124925750605f7f010000000000000000000000000000000000000000000000000000000000000002827effffffffffffffffffffffffffffffffffffffffffffffffffffffffffffff191611155b5b80612534575060617f010000000000000000000000000000000000000000000000000000000000000002827effffffffffffffffffffffffffffffffffffffffffffffffffffffffffffff1916101580156125335750607a7f010000000000000000000000000000000000000000000000000000000000000002827effffffffffffffffffffffffffffffffffffffffffffffffffffffffffffff191611155b5b156125425760079050612547565b600090505b919050565b6000602e7f010000000000000000000000000000000000000000000000000000000000000002827effffffffffffffffffffffffffffffffffffffffffffffffffffffffffffff1916101580156125e85750602e7f010000000000000000000000000000000000000000000000000000000000000002827effffffffffffffffffffffffffffffffffffffffffffffffffffffffffffff191611155b156125f657600690506129cf565b602f7f010000000000000000000000000000000000000000000000000000000000000002827effffffffffffffffffffffffffffffffffffffffffffffffffffffffffffff1916101580156126905750602f7f010000000000000000000000000000000000000000000000000000000000000002827effffffffffffffffffffffffffffffffffffffffffffffffffffffffffffff191611155b80612731575060307f010000000000000000000000000000000000000000000000000000000000000002827effffffffffffffffffffffffffffffffffffffffffffffffffffffffffffff191610158015612730575060397f010000000000000000000000000000000000000000000000000000000000000002827effffffffffffffffffffffffffffffffffffffffffffffffffffffffffffff191611155b5b806127d25750603a7f010000000000000000000000000000000000000000000000000000000000000002827effffffffffffffffffffffffffffffffffffffffffffffffffffffffffffff1916101580156127d1575060407f010000000000000000000000000000000000000000000000000000000000000002827effffffffffffffffffffffffffffffffffffffffffffffffffffffffffffff191611155b5b806128735750605b7f010000000000000000000000000000000000000000000000000000000000000002827effffffffffffffffffffffffffffffffffffffffffffffffffffffffffffff1916101580156128725750605f7f010000000000000000000000000000000000000000000000000000000000000002827effffffffffffffffffffffffffffffffffffffffffffffffffffffffffffff191611155b5b1561288157600790506129cf565b60417f010000000000000000000000000000000000000000000000000000000000000002827effffffffffffffffffffffffffffffffffffffffffffffffffffffffffffff19161015801561291b5750605a7f010000000000000000000000000000000000000000000000000000000000000002827effffffffffffffffffffffffffffffffffffffffffffffffffffffffffffff191611155b806129bc575060617f010000000000000000000000000000000000000000000000000000000000000002827effffffffffffffffffffffffffffffffffffffffffffffffffffffffffffff1916101580156129bb5750607a7f010000000000000000000000000000000000000000000000000000000000000002827effffffffffffffffffffffffffffffffffffffffffffffffffffffffffffff191611155b5b156129ca57600990506129cf565b600090505b919050565b6000602e7f010000000000000000000000000000000000000000000000000000000000000002827effffffffffffffffffffffffffffffffffffffffffffffffffffffffffffff191610158015612a705750602e7f010000000000000000000000000000000000000000000000000000000000000002827effffffffffffffffffffffffffffffffffffffffffffffffffffffffffffff191611155b15612a7e5760069050612e57565b602f7f010000000000000000000000000000000000000000000000000000000000000002827effffffffffffffffffffffffffffffffffffffffffffffffffffffffffffff191610158015612b185750602f7f010000000000000000000000000000000000000000000000000000000000000002827effffffffffffffffffffffffffffffffffffffffffffffffffffffffffffff191611155b80612bb9575060307f010000000000000000000000000000000000000000000000000000000000000002827effffffffffffffffffffffffffffffffffffffffffffffffffffffffffffff191610158015612bb8575060397f010000000000000000000000000000000000000000000000000000000000000002827effffffffffffffffffffffffffffffffffffffffffffffffffffffffffffff191611155b5b80612c5a5750603a7f010000000000000000000000000000000000000000000000000000000000000002827effffffffffffffffffffffffffffffffffffffffffffffffffffffffffffff191610158015612c59575060407f010000000000000000000000000000000000000000000000000000000000000002827effffffffffffffffffffffffffffffffffffffffffffffffffffffffffffff191611155b5b80612cfb5750605b7f010000000000000000000000000000000000000000000000000000000000000002827effffffffffffffffffffffffffffffffffffffffffffffffffffffffffffff191610158015612cfa5750605f7f010000000000000000000000000000000000000000000000000000000000000002827effffffffffffffffffffffffffffffffffffffffffffffffffffffffffffff191611155b5b15612d095760079050612e57565b60417f010000000000000000000000000000000000000000000000000000000000000002827effffffffffffffffffffffffffffffffffffffffffffffffffffffffffffff191610158015612da35750605a7f010000000000000000000000000000000000000000000000000000000000000002827effffffffffffffffffffffffffffffffffffffffffffffffffffffffffffff191611155b80612e44575060617f010000000000000000000000000000000000000000000000000000000000000002827effffffffffffffffffffffffffffffffffffffffffffffffffffffffffffff191610158015612e435750607a7f010000000000000000000000000000000000000000000000000000000000000002827effffffffffffffffffffffffffffffffffffffffffffffffffffffffffffff191611155b5b15612e5257600a9050612e57565b600090505b919050565b6000602e7f010000000000000000000000000000000000000000000000000000000000000002827effffffffffffffffffffffffffffffffffffffffffffffffffffffffffffff191610158015612ef85750602e7f010000000000000000000000000000000000000000000000000000000000000002827effffffffffffffffffffffffffffffffffffffffffffffffffffffffffffff191611155b15612f0657600690506132df565b602f7f010000000000000000000000000000000000000000000000000000000000000002827effffffffffffffffffffffffffffffffffffffffffffffffffffffffffffff191610158015612fa05750602f7f010000000000000000000000000000000000000000000000000000000000000002827effffffffffffffffffffffffffffffffffffffffffffffffffffffffffffff191611155b80613041575060307f010000000000000000000000000000000000000000000000000000000000000002827effffffffffffffffffffffffffffffffffffffffffffffffffffffffffffff191610158015613040575060397f010000000000000000000000000000000000000000000000000000000000000002827effffffffffffffffffffffffffffffffffffffffffffffffffffffffffffff191611155b5b806130e25750603a7f010000000000000000000000000000000000000000000000000000000000000002827effffffffffffffffffffffffffffffffffffffffffffffffffffffffffffff1916101580156130e1575060407f010000000000000000000000000000000000000000000000000000000000000002827effffffffffffffffffffffffffffffffffffffffffffffffffffffffffffff191611155b5b806131835750605b7f010000000000000000000000000000000000000000000000000000000000000002827effffffffffffffffffffffffffffffffffffffffffffffffffffffffffffff1916101580156131825750605f7f010000000000000000000000000000000000000000000000000000000000000002827effffffffffffffffffffffffffffffffffffffffffffffffffffffffffffff191611155b5b1561319157600790506132df565b60417f010000000000000000000000000000000000000000000000000000000000000002827effffffffffffffffffffffffffffffffffffffffffffffffffffffffffffff19161015801561322b5750605a7f010000000000000000000000000000000000000000000000000000000000000002827effffffffffffffffffffffffffffffffffffffffffffffffffffffffffffff191611155b806132cc575060617f010000000000000000000000000000000000000000000000000000000000000002827effffffffffffffffffffffffffffffffffffffffffffffffffffffffffffff1916101580156132cb5750607a7f010000000000000000000000000000000000000000000000000000000000000002827effffffffffffffffffffffffffffffffffffffffffffffffffffffffffffff191611155b5b156132da57600a90506132df565b600090505b919050565b604080519081016040528060001515815260200161330181525090565bfe00a165627a7a7230582020f3a0654c4ff9a634b066f499b4fd424374d0593098e014a6c4746d8a9b8fee0029",
  "source": "pragma solidity ^0.4.24;\n\nlibrary EmailRegex {\n  struct State {\n    bool accepts;\n    function (byte) internal pure returns (uint) func;\n  }\n\n  function state(uint id) internal pure returns (State) {\n    if (id == 1) {\n      return State(false, s1);\n    }\n    if (id == 2) {\n      return State(false, s2);\n    }\n    if (id == 3) {\n      return State(false, s3);\n    }\n    if (id == 4) {\n      return State(false, s4);\n    }\n    if (id == 5) {\n      return State(false, s5);\n    }\n    if (id == 6) {\n      return State(false, s6);\n    }\n    if (id == 7) {\n      return State(false, s7);\n    }\n    if (id == 8) {\n      return State(false, s8);\n    }\n    if (id == 9) {\n      return State(true, s9);\n    }\n    if (id == 10) {\n      return State(true, s10);\n    }\n  }\n\n  function matches(string input) public pure returns (bool) {\n    uint cur = 1;\n\n    for (uint i = 0; i < bytes(input).length; i++) {\n      bytes1 c = bytes(input)[i];\n\n      cur = state(cur).func(c);\n      if (cur == 0) {\n        return false;\n      }\n    }\n\n    return state(cur).accepts;\n  }\n\n  function s1(byte c) internal pure returns (uint) {\n    if (c >= 37 && c <= 37 || c >= 43 && c <= 43 || c >= 45 && c <= 45 || c >= 46 && c <= 46 || c >= 48 && c <= 57 || c >= 65 && c <= 90 || c >= 95 && c <= 95 || c >= 97 && c <= 122) {\n      return 2;\n    }\n\n    return 0;\n  }\n\n  function s2(byte c)  internal pure  returns (uint) {\n    if (c >= 37 && c <= 37 || c >= 43 && c <= 43 || c >= 45 && c <= 45 || c >= 46 && c <= 46 || c >= 48 && c <= 57 || c >= 65 && c <= 90 || c >= 95 && c <= 95 || c >= 97 && c <= 122) {\n      return 3;\n    }\n    if (c >= 64 && c <= 64) {\n      return 4;\n    }\n\n    return 0;\n  }\n\n  function s3(byte c)  internal pure returns (uint) {\n    if (c >= 37 && c <= 37 || c >= 43 && c <= 43 || c >= 45 && c <= 45 || c >= 46 && c <= 46 || c >= 48 && c <= 57 || c >= 65 && c <= 90 || c >= 95 && c <= 95 || c >= 97 && c <= 122) {\n      return 3;\n    }\n    if (c >= 64 && c <= 64) {\n      return 4;\n    }\n\n    return 0;\n  }\n\n  function s4(byte c) internal pure returns (uint) {\n    if (c >= 46 && c <= 47 || c >= 48 && c <= 57 || c >= 58 && c <= 64 || c >= 65 && c <= 90 || c >= 91 && c <= 95 || c >= 97 && c <= 122) {\n      return 5;\n    }\n\n    return 0;\n  }\n\n  function s5(byte c) internal pure returns (uint) {\n    if (c >= 46 && c <= 46) {\n      return 6;\n    }\n    if (c >= 47 && c <= 47 || c >= 48 && c <= 57 || c >= 58 && c <= 64 || c >= 65 && c <= 90 || c >= 91 && c <= 95 || c >= 97 && c <= 122) {\n      return 7;\n    }\n\n    return 0;\n  }\n\n  function s6(byte c) internal pure returns (uint) {\n    if (c >= 46 && c <= 46) {\n      return 6;\n    }\n    if (c >= 47 && c <= 47 || c >= 48 && c <= 57 || c >= 58 && c <= 64 || c >= 91 && c <= 95) {\n      return 7;\n    }\n    if (c >= 65 && c <= 90 || c >= 97 && c <= 122) {\n      return 8;\n    }\n\n    return 0;\n  }\n\n  function s7(byte c) internal pure returns (uint) {\n    if (c >= 46 && c <= 46) {\n      return 6;\n    }\n    if (c >= 47 && c <= 47 || c >= 48 && c <= 57 || c >= 58 && c <= 64 || c >= 65 && c <= 90 || c >= 91 && c <= 95 || c >= 97 && c <= 122) {\n      return 7;\n    }\n\n    return 0;\n  }\n\n  function s8(byte c) internal pure returns (uint) {\n    if (c >= 46 && c <= 46) {\n      return 6;\n    }\n    if (c >= 47 && c <= 47 || c >= 48 && c <= 57 || c >= 58 && c <= 64 || c >= 91 && c <= 95) {\n      return 7;\n    }\n    if (c >= 65 && c <= 90 || c >= 97 && c <= 122) {\n      return 9;\n    }\n\n    return 0;\n  }\n\n  function s9(byte c) internal pure returns (uint) {\n    if (c >= 46 && c <= 46) {\n      return 6;\n    }\n    if (c >= 47 && c <= 47 || c >= 48 && c <= 57 || c >= 58 && c <= 64 || c >= 91 && c <= 95) {\n      return 7;\n    }\n    if (c >= 65 && c <= 90 || c >= 97 && c <= 122) {\n      return 10;\n    }\n\n    return 0;\n  }\n\n  function s10(byte c) internal pure returns (uint) {\n    if (c >= 46 && c <= 46) {\n      return 6;\n    }\n    if (c >= 47 && c <= 47 || c >= 48 && c <= 57 || c >= 58 && c <= 64 || c >= 91 && c <= 95) {\n      return 7;\n    }\n    if (c >= 65 && c <= 90 || c >= 97 && c <= 122) {\n      return 10;\n    }\n\n    return 0;\n  }\n}",
  "sourcePath": "/home/rumeelhussain/Desktop/Consensys-Academy-FP/contracts/EmailRegex.sol",
  "compiler": {
    "name": "solc",
    "version": "0.4.24+commit.e67f0147.Emscripten.clang"
  },
  "schemaVersion": "2.0.1",
  "updatedAt": "2019-01-14T11:56:38.466Z"
}